{
  "_format": "hh-sol-artifact-1",
  "contractName": "SocialNetwork",
  "sourceName": "contracts/SocialNetwork.sol",
  "abi": [
    {
      "inputs": [],
      "stateMutability": "nonpayable",
      "type": "constructor"
    },
    {
      "anonymous": false,
      "inputs": [
        {
          "indexed": false,
          "internalType": "uint256",
          "name": "id",
          "type": "uint256"
        },
        {
          "indexed": true,
          "internalType": "address",
          "name": "from",
          "type": "address"
        },
        {
          "indexed": false,
          "internalType": "string",
          "name": "comment",
          "type": "string"
        },
        {
          "indexed": false,
          "internalType": "uint256",
          "name": "timestamp",
          "type": "uint256"
        },
        {
          "indexed": false,
          "internalType": "uint256",
          "name": "totallikes",
          "type": "uint256"
        }
      ],
      "name": "NewComment",
      "type": "event"
    },
    {
      "anonymous": false,
      "inputs": [
        {
          "indexed": false,
          "internalType": "uint256",
          "name": "id",
          "type": "uint256"
        },
        {
          "indexed": false,
          "internalType": "uint256",
          "name": "totallikes",
          "type": "uint256"
        },
        {
          "indexed": false,
          "internalType": "bool",
          "name": "flagCompleted",
          "type": "bool"
        }
      ],
      "name": "NewLike",
      "type": "event"
    },
    {
      "inputs": [],
      "name": "getAllComments",
      "outputs": [
        {
          "components": [
            {
              "internalType": "uint256",
              "name": "id",
              "type": "uint256"
            },
            {
              "internalType": "address",
              "name": "poster",
              "type": "address"
            },
            {
              "internalType": "string",
              "name": "comment",
              "type": "string"
            },
            {
              "internalType": "uint256",
              "name": "timestamp",
              "type": "uint256"
            },
            {
              "internalType": "uint256",
              "name": "totallikes",
              "type": "uint256"
            }
          ],
          "internalType": "struct SocialNetwork.Comment[]",
          "name": "",
          "type": "tuple[]"
        }
      ],
      "stateMutability": "view",
      "type": "function"
    },
    {
      "inputs": [
        {
          "internalType": "uint256",
          "name": "_ind",
          "type": "uint256"
        }
      ],
      "name": "isFirstLike",
      "outputs": [
        {
          "internalType": "bool",
          "name": "",
          "type": "bool"
        }
      ],
      "stateMutability": "nonpayable",
      "type": "function"
    },
    {
      "inputs": [
        {
          "internalType": "uint256",
          "name": "_num",
          "type": "uint256"
        }
      ],
      "name": "like",
      "outputs": [],
      "stateMutability": "nonpayable",
      "type": "function"
    },
    {
      "inputs": [
        {
          "internalType": "uint256",
          "name": "_num",
          "type": "uint256"
        }
      ],
      "name": "likeForDebug",
      "outputs": [],
      "stateMutability": "nonpayable",
      "type": "function"
    },
    {
      "inputs": [
        {
          "internalType": "string",
          "name": "_comment",
          "type": "string"
        }
      ],
      "name": "post",
      "outputs": [],
      "stateMutability": "nonpayable",
      "type": "function"
    }
  ],
  "bytecode": "0x60806040526000640108000001553480156200001a57600080fd5b50620000666040518060400160405280600f81526020017f536f6369616c204e6574776f726b2100000000000000000000000000000000008152506200006c60201b62000eca1760201c565b62000200565b6200010c81604051602401620000839190620001dc565b6040516020818303038152906040527f41304fac000000000000000000000000000000000000000000000000000000007bffffffffffffffffffffffffffffffffffffffffffffffffffffffff19166020820180517bffffffffffffffffffffffffffffffffffffffffffffffffffffffff83818316178352505050506200010f60201b60201c565b50565b60008151905060006a636f6e736f6c652e6c6f679050602083016000808483855afa5050505050565b600081519050919050565b600082825260208201905092915050565b60005b838110156200017457808201518184015260208101905062000157565b8381111562000184576000848401525b50505050565b6000601f19601f8301169050919050565b6000620001a88262000138565b620001b4818562000143565b9350620001c681856020860162000154565b620001d1816200018a565b840191505092915050565b60006020820190508181036000830152620001f881846200019b565b905092915050565b611c1c80620002106000396000f3fe608060405234801561001057600080fd5b50600436106100575760003560e01c8063104409041461005c5780638ee93cf31461007a5780639a5c29cd14610096578063caccf68a146100c6578063e82935da146100e2575b600080fd5b6100646100fe565b6040516100719190611554565b60405180910390f35b610094600480360381019061008f91906116bf565b610267565b005b6100b060048036038101906100ab9190611734565b610492565b6040516100bd919061177c565b60405180910390f35b6100e060048036038101906100db9190611734565b6109e8565b005b6100fc60048036038101906100f79190611734565b610c05565b005b6060640107ffffff805480602002602001604051908101604052809291908181526020016000905b8282101561025e57838290600052602060002090600502016040518060a0016040529081600082015481526020016001820160009054906101000a900473ffffffffffffffffffffffffffffffffffffffff1673ffffffffffffffffffffffffffffffffffffffff1673ffffffffffffffffffffffffffffffffffffffff1681526020016002820180546101b9906117c6565b80601f01602080910402602001604051908101604052809291908181526020018280546101e5906117c6565b80156102325780601f1061020757610100808354040283529160200191610232565b820191906000526020600020905b81548152906001019060200180831161021557829003601f168201915b505050505081526020016003820154815260200160048201548152505081526020019060010190610126565b50505050905090565b63ffffffff64010800000154106102b3576040517f08c379a00000000000000000000000000000000000000000000000000000000081526004016102aa9061187b565b60405180910390fd5b6102f36040518060400160405280601781526020017f257320706f7374656420772f20636f6d6d656e742025730000000000000000008152503383610f63565b640107ffffff6040518060a001604052806401080000015481526020013373ffffffffffffffffffffffffffffffffffffffff168152602001838152602001428152602001600081525090806001815401808255809150506001900390600052602060002090600502016000909190919091506000820151816000015560208201518160010160006101000a81548173ffffffffffffffffffffffffffffffffffffffff021916908373ffffffffffffffffffffffffffffffffffffffff16021790555060408201518160020190805190602001906103d39291906111fc565b50606082015181600301556080820151816004015550503373ffffffffffffffffffffffffffffffffffffffff167f53f396dd1151b0d1288b40f2724a03a3740d300dadbe3f65d481347685fadc41640108000001548342640107ffffff64010800000154815481106104495761044861189b565b5b90600052602060002090600502016004015460405161046b9493929190611912565b60405180910390a2640108000001600081548092919061048a9061198d565b919050555050565b600080151560008363ffffffff81106104ae576104ad61189b565b5b602091828204019190069054906101000a900460ff1615151415610725576401080000006040518060200160405280600067ffffffffffffffff8111156104f8576104f7611594565b5b6040519080825280602002602001820160405280156105265781602001602082028036833780820191505090505b5081525090806001815401808255809150506001900390600052602060002001600090919091909150600082015181600001908051906020019061056b929190611282565b50505064010800000082815481106105865761058561189b565b5b90600052602060002001600001339080600181540180825580915050600190039060005260206000200160009091909190916101000a81548173ffffffffffffffffffffffffffffffffffffffff021916908373ffffffffffffffffffffffffffffffffffffffff160217905550600163080000008363ffffffff81106106105761060f61189b565b5b015461061c91906119d6565b63080000008363ffffffff81106106365761063561189b565b5b01819055506106a664010800000083815481106106565761065561189b565b5b906000526020600020016000016000815481106106765761067561189b565b5b9060005260206000200160009054906101000a900473ffffffffffffffffffffffffffffffffffffffff16611002565b600160008363ffffffff81106106bf576106be61189b565b5b602091828204019190066101000a81548160ff02191690831515021790555061071c6040518060400160405280600481526020017f7472756500000000000000000000000000000000000000000000000000000000815250610eca565b600190506109e3565b60006001905060005b63080000008463ffffffff81106107485761074761189b565b5b01548110156107fe573373ffffffffffffffffffffffffffffffffffffffff1664010800000085815481106107805761077f61189b565b5b90600052602060002001600001828154811061079f5761079e61189b565b5b9060005260206000200160009054906101000a900473ffffffffffffffffffffffffffffffffffffffff1673ffffffffffffffffffffffffffffffffffffffff1614156107eb57600091505b80806107f69061198d565b91505061072e565b50801561099f57640108000000838154811061081d5761081c61189b565b5b90600052602060002001600001339080600181540180825580915050600190039060005260206000200160009091909190916101000a81548173ffffffffffffffffffffffffffffffffffffffff021916908373ffffffffffffffffffffffffffffffffffffffff16021790555061091064010800000084815481106108a6576108a561189b565b5b9060005260206000200160000163080000008563ffffffff81106108cd576108cc61189b565b5b0154815481106108e0576108df61189b565b5b9060005260206000200160009054906101000a900473ffffffffffffffffffffffffffffffffffffffff16611002565b600163080000008463ffffffff811061092c5761092b61189b565b5b015461093891906119d6565b63080000008463ffffffff81106109525761095161189b565b5b01819055506109956040518060400160405280600781526020017f4f4b207472756500000000000000000000000000000000000000000000000000815250610eca565b60019150506109e3565b6109dd6040518060400160405280600581526020017f66616c7365000000000000000000000000000000000000000000000000000000815250610eca565b60009150505b919050565b7fffffffffffffffffffffffffffffffffffffffffffffffffffffffffffffffff63080000008263ffffffff8110610a2357610a2261189b565b5b015410610a65576040517f08c379a0000000000000000000000000000000000000000000000000000000008152600401610a5c90611a9e565b60405180910390fd5b610acd6040518060400160405280601181526020017f746f74616c206c696b6573206973202569000000000000000000000000000000815250640107ffffff8381548110610ab657610ab561189b565b5b90600052602060002090600502016004015461109b565b640107ffffff8181548110610ae557610ae461189b565b5b90600052602060002090600502016004016000815480929190610b079061198d565b9190505550610b746040518060400160405280601181526020017f746f74616c206c696b6573206973202569000000000000000000000000000000815250640107ffffff8381548110610b5d57610b5c61189b565b5b90600052602060002090600502016004015461109b565b7f8d6aaa7c4a328f24ad373823b75962d81ec0f36ddb11e76dc5c09655737cd4f2640107ffffff8281548110610bad57610bac61189b565b5b906000526020600020906005020160000154640107ffffff8381548110610bd757610bd661189b565b5b9060005260206000209060050201600401546001604051610bfa93929190611abe565b60405180910390a150565b6000610c1082610492565b9050610c516040518060400160405280601b81526020017f2573206c696b65656420772f2061742074686520636f6d6d656e74000000000081525033611137565b8015610df957610cbf6040518060400160405280601181526020017f746f74616c206c696b6573206973202569000000000000000000000000000000815250640107ffffff8481548110610ca857610ca761189b565b5b90600052602060002090600502016004015461109b565b640107ffffff8281548110610cd757610cd661189b565b5b90600052602060002090600502016004016000815480929190610cf99061198d565b9190505550610d666040518060400160405280601181526020017f746f74616c206c696b6573206973202569000000000000000000000000000000815250640107ffffff8481548110610d4f57610d4e61189b565b5b90600052602060002090600502016004015461109b565b7f8d6aaa7c4a328f24ad373823b75962d81ec0f36ddb11e76dc5c09655737cd4f2640107ffffff8381548110610d9f57610d9e61189b565b5b906000526020600020906005020160000154640107ffffff8481548110610dc957610dc861189b565b5b9060005260206000209060050201600401546001604051610dec93929190611abe565b60405180910390a1610ec6565b610e376040518060400160405280600e81526020017f4f6e6c79204f6e652054696d6521000000000000000000000000000000000000815250610eca565b7f8d6aaa7c4a328f24ad373823b75962d81ec0f36ddb11e76dc5c09655737cd4f2640107ffffff8381548110610e7057610e6f61189b565b5b906000526020600020906005020160000154640107ffffff8481548110610e9a57610e9961189b565b5b9060005260206000209060050201600401546000604051610ebd93929190611abe565b60405180910390a15b5050565b610f6081604051602401610ede9190611af5565b6040516020818303038152906040527f41304fac000000000000000000000000000000000000000000000000000000007bffffffffffffffffffffffffffffffffffffffffffffffffffffffff19166020820180517bffffffffffffffffffffffffffffffffffffffffffffffffffffffff83818316178352505050506111d3565b50565b610ffd838383604051602401610f7b93929190611b26565b6040516020818303038152906040527fe0e9ad4f000000000000000000000000000000000000000000000000000000007bffffffffffffffffffffffffffffffffffffffffffffffffffffffff19166020820180517bffffffffffffffffffffffffffffffffffffffffffffffffffffffff83818316178352505050506111d3565b505050565b611098816040516024016110169190611b6b565b6040516020818303038152906040527f2c2ecbc2000000000000000000000000000000000000000000000000000000007bffffffffffffffffffffffffffffffffffffffffffffffffffffffff19166020820180517bffffffffffffffffffffffffffffffffffffffffffffffffffffffff83818316178352505050506111d3565b50565b61113382826040516024016110b1929190611b86565b6040516020818303038152906040527f9710a9d0000000000000000000000000000000000000000000000000000000007bffffffffffffffffffffffffffffffffffffffffffffffffffffffff19166020820180517bffffffffffffffffffffffffffffffffffffffffffffffffffffffff83818316178352505050506111d3565b5050565b6111cf828260405160240161114d929190611bb6565b6040516020818303038152906040527f319af333000000000000000000000000000000000000000000000000000000007bffffffffffffffffffffffffffffffffffffffffffffffffffffffff19166020820180517bffffffffffffffffffffffffffffffffffffffffffffffffffffffff83818316178352505050506111d3565b5050565b60008151905060006a636f6e736f6c652e6c6f679050602083016000808483855afa5050505050565b828054611208906117c6565b90600052602060002090601f01602090048101928261122a5760008555611271565b82601f1061124357805160ff1916838001178555611271565b82800160010185558215611271579182015b82811115611270578251825591602001919060010190611255565b5b50905061127e919061130c565b5090565b8280548282559060005260206000209081019282156112fb579160200282015b828111156112fa5782518260006101000a81548173ffffffffffffffffffffffffffffffffffffffff021916908373ffffffffffffffffffffffffffffffffffffffff160217905550916020019190600101906112a2565b5b509050611308919061130c565b5090565b5b8082111561132557600081600090555060010161130d565b5090565b600081519050919050565b600082825260208201905092915050565b6000819050602082019050919050565b6000819050919050565b61136881611355565b82525050565b600073ffffffffffffffffffffffffffffffffffffffff82169050919050565b60006113998261136e565b9050919050565b6113a98161138e565b82525050565b600081519050919050565b600082825260208201905092915050565b60005b838110156113e95780820151818401526020810190506113ce565b838111156113f8576000848401525b50505050565b6000601f19601f8301169050919050565b600061141a826113af565b61142481856113ba565b93506114348185602086016113cb565b61143d816113fe565b840191505092915050565b600060a083016000830151611460600086018261135f565b50602083015161147360208601826113a0565b506040830151848203604086015261148b828261140f565b91505060608301516114a0606086018261135f565b5060808301516114b3608086018261135f565b508091505092915050565b60006114ca8383611448565b905092915050565b6000602082019050919050565b60006114ea82611329565b6114f48185611334565b93508360208202850161150685611345565b8060005b85811015611542578484038952815161152385826114be565b945061152e836114d2565b925060208a0199505060018101905061150a565b50829750879550505050505092915050565b6000602082019050818103600083015261156e81846114df565b905092915050565b6000604051905090565b600080fd5b600080fd5b600080fd5b600080fd5b7f4e487b7100000000000000000000000000000000000000000000000000000000600052604160045260246000fd5b6115cc826113fe565b810181811067ffffffffffffffff821117156115eb576115ea611594565b5b80604052505050565b60006115fe611576565b905061160a82826115c3565b919050565b600067ffffffffffffffff82111561162a57611629611594565b5b611633826113fe565b9050602081019050919050565b82818337600083830152505050565b600061166261165d8461160f565b6115f4565b90508281526020810184848401111561167e5761167d61158f565b5b611689848285611640565b509392505050565b600082601f8301126116a6576116a561158a565b5b81356116b684826020860161164f565b91505092915050565b6000602082840312156116d5576116d4611580565b5b600082013567ffffffffffffffff8111156116f3576116f2611585565b5b6116ff84828501611691565b91505092915050565b61171181611355565b811461171c57600080fd5b50565b60008135905061172e81611708565b92915050565b60006020828403121561174a57611749611580565b5b60006117588482850161171f565b91505092915050565b60008115159050919050565b61177681611761565b82525050565b6000602082019050611791600083018461176d565b92915050565b7f4e487b7100000000000000000000000000000000000000000000000000000000600052602260045260246000fd5b600060028204905060018216806117de57607f821691505b602082108114156117f2576117f1611797565b5b50919050565b600082825260208201905092915050565b7f546865206e756d626572206f6620636f6d6d656e74732065786365656473207460008201527f6865207570706572206c696d69742e0000000000000000000000000000000000602082015250565b6000611865602f836117f8565b915061187082611809565b604082019050919050565b6000602082019050818103600083015261189481611858565b9050919050565b7f4e487b7100000000000000000000000000000000000000000000000000000000600052603260045260246000fd5b6118d381611355565b82525050565b60006118e4826113af565b6118ee81856117f8565b93506118fe8185602086016113cb565b611907816113fe565b840191505092915050565b600060808201905061192760008301876118ca565b818103602083015261193981866118d9565b905061194860408301856118ca565b61195560608301846118ca565b95945050505050565b7f4e487b7100000000000000000000000000000000000000000000000000000000600052601160045260246000fd5b600061199882611355565b91507fffffffffffffffffffffffffffffffffffffffffffffffffffffffffffffffff8214156119cb576119ca61195e565b5b600182019050919050565b60006119e182611355565b91506119ec83611355565b9250827fffffffffffffffffffffffffffffffffffffffffffffffffffffffffffffffff03821115611a2157611a2061195e565b5b828201905092915050565b7f546865206e756d626572206f66206c696b65732065786365656473207468652060008201527f7570706572206c696d69742e0000000000000000000000000000000000000000602082015250565b6000611a88602c836117f8565b9150611a9382611a2c565b604082019050919050565b60006020820190508181036000830152611ab781611a7b565b9050919050565b6000606082019050611ad360008301866118ca565b611ae060208301856118ca565b611aed604083018461176d565b949350505050565b60006020820190508181036000830152611b0f81846118d9565b905092915050565b611b208161138e565b82525050565b60006060820190508181036000830152611b4081866118d9565b9050611b4f6020830185611b17565b8181036040830152611b6181846118d9565b9050949350505050565b6000602082019050611b806000830184611b17565b92915050565b60006040820190508181036000830152611ba081856118d9565b9050611baf60208301846118ca565b9392505050565b60006040820190508181036000830152611bd081856118d9565b9050611bdf6020830184611b17565b939250505056fea264697066735822122015b8a234b1d1471e750b996d4a04cdda2bd9d752ac52f40a93b27733da40202d64736f6c63430008090033",
  "linkReferences": {},
  "deployedLinkReferences": {}
}